:020000040800F2
:100000006020002049010008AB160008B713000863
:10001000A91600080B110008953000080000000028
:10002000000000000000000000000000892200081D
:100030000D110008000000009D1A00088D23000823
:100040006301000863010008630100086301000800
:1000500063010008630100086301000863010008F0
:1000600063010008630100086301000863010008E0
:1000700063010008630100086301000863010008D0
:1000800063010008630100086301000863010008C0
:1000900063010008630100086301000811110008F2
:1000A00063010008630100086301000863010008A0
:1000B00039250008F12500084D26000863010008D5
:1000C0006301000863010008630100086301000880
:1000D0006301000863010008630100086D2E000839
:1000E0006301000863010008630100086301000860
:1000F0006301000863010008630100086301000850
:10010000630100086301000863010008630100083F
:10011000630100086301000863010008630100082F
:10012000630100086301000863010008630100081F
:10013000DFF810D000F0FAFD00480047F551000844
:10014000AFF3008060200020064880470648004743
:10015000FEE7FEE7FEE7FEE7FEE7FEE7FEE7FEE777
:10016000FEE7FEE79D2300083101000840EA010395
:100170009B0703D009E008C9121F08C0042AFAD25D
:1001800003E011F8013B00F8013B521EF9D2704721
:10019000D2B201E000F8012B491EFBD270470022C9
:1001A000F6E710B513460A4604461946FFF7F0FF76
:1001B000204610BD30B505462A460B4612F8010B05
:1001C00013F8014B08B1A042F8D01CB1002802D0AE
:1001D0006D1CF1E7284630BD421C10F8011B0029B8
:1001E000FBD1801A704730B504460020034600E07A
:1001F0005B1C934203D2E05CCD5C401BF8D030BD69
:10020000034611F8012B00F8012B002AF9D11846FA
:10021000704730B505460020034600E05B1C934262
:1002200005D2EC5CC85C201A01D1002CF6D130BD9F
:100230000FB400B58DB010A909900B9000914FF04C
:10024000FF300A9000200C90054806900548079062
:100250006A4609A80F9900F03DFC0DB05DF814FB4B
:10026000F10A00080F0B00082DE9FF5F1D464FF053
:10027000FF3BD5E9014691465F464FF00008A9696A
:100280007F1C01988847296A824688470028F6D152
:10029000BAF1FF3F0CD024F4C064002E19DD6006D3
:1002A00014D5BAF12B0F09D0BAF12D0F0ED103E0FE
:1002B000584604B0BDE8F09F44F48064A9697F1CEF
:1002C00001988847761E8246002E02DDBAF1300F73
:1002D00003D0B9F1000F26D032E0A969761E44F4AC
:1002E00000747F1C019888478246002E05DDBAF114
:1002F000780F06D0BAF1580F03D0B9F1000F10D023
:100300001EE0B9F1000F02D0B9F1100F18D1A969A0
:10031000761E24F400747F1C0198884782461020C2
:1003200002E0082000E00A20814609E008FB0908F5
:10033000A969761E44F400747F1C019888478246A0
:10034000002E05DD4946504600F0B0FB0028EDDAEE
:10035000E96901988847A00502D46FF00100A8E779
:10036000E00725D1600613D5600502D5C8F100006D
:1003700000E0404629680A1D2A600968220501D567
:10038000087015E0220701D5088011E008600FE031
:100390002868011D29600068210502D580F80080C9
:1003A00006E0210702D5A0F8008001E0C0F8008037
:1003B00038467EE7F0B480EA0102D40F4200B2EB87
:1003C000410F02D20246084611464A0042D0C30DF0
:1003D000DDB2C1F3C752AD1A202D35DAC1F31601D3
:1003E00041F4000204B15242C5F1200602FA06F1BE
:1003F0002A411044B3EBD05F23D0C4B1012DA0EB50
:10040000C35009DCF0BC4FF0004202EAC352DBB239
:1004100000F5000000F095BB400000F1807000EB9B
:10042000C350A0F1807040EAD170490009E049084A
:1004300041EAC071A0EBC35000F50000400800EB9A
:10044000C350F0BC00F074BB6142012202EB4101D9
:10045000001BF6E7F0BC704781F00041AAE780F08E
:100460000040A7E780EA010210B502F00043400017
:1004700022D04A001FD0010E01EB1261C0F35600DA
:10048000C2F3560240F4000042F40002A0FB022036
:1004900000047F39140400D0401C50EA124001D4FB
:1004A0004000491EC2B20C0604EBD010401C4008AC
:1004B000802A02D003E0002010BD20F001000029B6
:1004C00000DA0020184310BD30B480EA010202F0C7
:1004D000004530F0004221F0004013D090B1C30D30
:1004E000D40DC2F31601C0F31600E41A41F4000162
:1004F00040F400027D34914201D3641C00E04900C5
:10050000002C02DA30BC002070474FF400000023BA
:10051000914201D3891A034340084FEA4101F7D1C0
:1005200051B1914202D14FF0004105E002D24FF0AB
:10053000010101E06FF0010103EBC450284430BC1D
:1005400000F0F6BA2DE9FE4F804681EA0300C00FA5
:100550000C46009021F0004123F00045B8EB02006A
:10056000A94105D24046214690461C460B4602460C
:1005700023F00040104347D0270DC7F30A00C3F310
:100580000A510290401A019040286BDAC3F313001D
:1005900040F4801B0098924620B10023D2EB030A5E
:1005A00063EB0B0B01985946C0F14002504600F036
:1005B0004CFA06460D4650465946019A00F064FA38
:1005C00010EB08006141002487EA115284EAE773C6
:1005D0001A4340D0009A62B3019A012A4FEA0752A7
:1005E00015DC001B61EB02014FF0004202EA0752EA
:1005F000CDE90042001C41F5801132462B4600F047
:10060000DDFA03B0BDE8F08F40462146F9E7001B54
:1006100061EB0201001C41F5801300185B412018BA
:10062000A2F5001747EB030140EAD570B6196D41FA
:1006300011E06D084FEA360645EAC0754FEA0752E9
:10064000001B61EB0201001C41F5801149084FEAD3
:1006500030000019514132462B4603B0BDE8F04F3F
:1006600000F09DBA0098012240000023D0EB020266
:1006700063EBE073009821464FEAE074B8EB0000AA
:1006800061EB0401E9E783F000435BE781F000419F
:1006900058E72DE9FE4F81EA030404F0004421F0FD
:1006A000004100944FF0000B23F0004350EA010496
:1006B0005ED052EA03045BD0C3F30A54C1F30A5577
:1006C0002C44A4F2F3340194A0FB0254C1F31301AF
:1006D00041F48011C3F3130343F4801301FB02447C
:1006E00000FB034E840A970A44EA815447EA835781
:1006F000A4FB076802958D0A05FB07854FEA932C3A
:1007000004FB0C542705029D4FEA065847EA1637AA
:10071000B5EB08056EEB070C870E920E47EA8117C2
:1007200042EA8312A7FB0201B6EB0B0164EB000463
:100730002B0D43EA0C335E1844EB1C50DA4651464D
:10074000E7FB0201C5F313044FEA0B3343EA1453EA
:100750004FEA0432019C43EA0603A4F10C0402941C
:10076000009CCDE900B400F029FA03B0BDE8F08F99
:1007700000200146F9E72DE9F04D81EA030404F079
:10078000004B21F0004514464FF0000A23F00041D1
:1007900050EA050220D054EA01021DD0C5F30A57E1
:1007A0000246C5F31303C1F31300C1F30A5640F424
:1007B000801543F48013A7EB0608101BD64608F2F9
:1007C000FD3873EB050002D308F1010801E092182F
:1007D0005B41B8F1000F03DA00200146BDE8F08D5F
:1007E00000204FF48011064684460EE0171B73EB81
:1007F000050705D3121B63EB050306434CEA010C06
:1008000049084FEA300092185B4150EA0107EDD1E8
:1008100052EA030012D082EA040083EA0501084389
:1008200005D0101BAB4106D20122002306E00022B6
:100830004FF0004302E06FF0010253101AEB060084
:100840004CEB085110EB0A0041EB0B01BDE8F04DF9
:1008500000F0A5B970B521F0004303430CD0C1F3FB
:100860000A550024D5EB040564EB0403D617AD1A32
:10087000B34102DB0020014670BD201841EB02515C
:1008800070BDC10F80EAE0700844CA0796230021BA
:1008900000F057B996230022114600F052B90EB568
:1008A000C10F80EAE0700844CA07002140F23343D8
:1008B0008DE80E000A460B4600F080F903B000BD3B
:1008C00000F0004220F00040C10DC0F3160040F4DB
:1008D00000007F2901DA00207047962903DCC1F16E
:1008E0009601C84001E096398840002AF4D0404281
:1008F000704720F00040C10DC0F3160040F4000026
:100900007F2901DA00207047962903DCC1F19601A6
:10091000C840704796398840704700F0004230F078
:1009200000400AD0C10D01F56071C0F3160042EA23
:100930000151C2084007114370470020014670472B
:1009400030B5041E71F1000404DB4FF00044404256
:1009500064EB0101141E73F1000405DB1C464FF02B
:100960000043524263EB0403994208BF904230BDFA
:1009700001F0004330B421F0004150EA010206D0FA
:100980000A0DA2F56072C1F31301002A02DC30BC2B
:1009900000207047440F44EAC104C100E01830BC95
:1009A00000EBC25000F0C4B8002801DBC0F10040E9
:1009B000002901DBC1F100418842704730B50B4688
:1009C000014600202022012409E021FA02F59D427F
:1009D00005D303FA02F5491B04FA02F52844151E53
:1009E000A2F10102F1DC30BD2DE9F05F05460020E7
:1009F00092469B4688460646814640241BE0284690
:100A000041464746224600F02FF853465A46C01A40
:100A1000914110D311461846224600F016F82D1ABF
:100A200067EB01084F4622460120002100F00DF837
:100A300017EB00094E41201EA4F10104DFDC4846FB
:100A400031462A464346BDE8F09F202A04DB203A7F
:100A500000FA02F1002070479140C2F1200320FA11
:100A600003F3194390407047202A04DB203A21FA0F
:100A700002F00021704721FA02F3D040C2F12002B7
:100A80009140084319467047202A06DBCB17203ACD
:100A900041FA02F043EAE07306E041FA02F3D04083
:100AA000C2F1200291400843194670473A2800D20B
:100AB000303820F02002412A01D3A2F137008842C9
:100AC00001D34FF0FF307047026811441378016082
:100AD00018467047D16004495161044911620021F0
:100AE0001161114600F03AB9C90A0008510D000819
:100AF000426842B1016811F8013B23B1521EC0E9BE
:100B00000012184670470121C160881E7047426874
:100B10005AB1C368016843B983688B4205D0491E46
:100B2000521CC0E90012002070474FF0FF307047A0
:100B30000029A8BF7047401C490008BF20F00100F1
:100B4000704710B4B0FA80FC00FA0CF050EA0104CF
:100B500004BF10BC704749B1CCF1200421FA04F461
:100B600011FA0CF118BF012121430843A3EB0C013A
:100B7000CB1D4FEA00614FEA102042BF002010BC9D
:100B8000704700EBC35010440029A4BF10BC70474D
:100B9000401C490008BF20F0010010BC704710B590
:100BA000141E73F1000408DA401C41F10001921890
:100BB0005B411A4301D120F0010010BD2DE9F04D39
:100BC00092469B4611B1B1FA81F202E0B0FA80F28E
:100BD00020329046FFF739FF04460F4640EA0A00EC
:100BE00041EA0B0153465A46084313D0114653EAD3
:100BF000010019D0C8F140025046FFF735FF054605
:100C00000E46504659464246FFF71FFF084305D09F
:100C1000012004E020463946BDE8F08D0020054360
:100C200046EAE0762C4337430A986305E40AA0EBD2
:100C300008000022FD0A44EA47540A3002D5002089
:100C40000146E9E7010510196941DDE90845001988
:100C50006941BDE8F04DA2E72DE9F04D00231A46A9
:100C60001B1A8A4103DB00200146BDE8F08DC1F369
:100C70000A52C1F3130141F480154FF0000BD10764
:100C800002D100186D41521E0027044640F2FF11A8
:100C9000384601EB620A3E468046024600204FF489
:100CA0008011FFF7E1FEC2197141BB1846EB01004C
:100CB000B4EB030C75EB000C04D3E41A65EB0005F0
:100CC00017460E46241908F101006D41804634286C
:100CD000E3DDF91946EB0600091BA84103D24FF0EA
:100CE000FF32134601E0002213461BEB070046EBE0
:100CF0000A51BDE8F04DFFF752BFC1F30A52C1F3EC
:100D0000130140F2FF3341F480119A4202DA0020CD
:100D10000146704740F233439A42A2F2334202DC6A
:100D20005242FFF7A1BEFFF790BE0000064C074DF0
:100D300006E0E06840F0010394E8070098471034AB
:100D4000AC42F6D3FFF7F8F9B88A0008D88A000851
:100D5000C0B24FF4F05100F099B900002DE9F34F03
:100D60008BB04FF0000801F10C000C464FF0010B66
:100D700046460DF1080A01906269012101989047E9
:100D8000051E2DD0252D2CD0216A8847C0B162695F
:100D9000012101989047216A88470028F7D1411E18
:100DA00062690198904700E0761CA1690B9888471A
:100DB000216A88470028F7D1E1690B988847DBE76B
:100DC000A1690B9888470746A84201D1761CD3E752
:100DD000E1690B9888477F1C02D1B8F1000F6FD0F2
:100DE00047E1002762693D463946019890472A2825
:100DF00004D162690121019890470125DFF88892AA
:100E00006269012101989047A0F130010A290AD2B4
:100E10004F45E5DC07EB870100EB4107303FDFD4AE
:100E200045F01005ECE7E90601D46FF000476C28A7
:100E30000AD04C2814D0682815D06A280DD0742800
:100E40001CD07A281AD01DE06269012101989047D0
:100E50006C2802D045F0040514E045F002050DE0D1
:100E600045F020050AE06269012101989047682851
:100E700002D045F0080505E045F4006562690121EE
:100E800001989047C4E9015765283DD019DC5828DE
:100E90007AD00CDC452837D004DC252826D0412820
:100EA00031D131E046282FD047282CD12CE05B28C7
:100EB00077D0612828D063287CD0642823D15AE0D9
:100EC000D1E06F2848D008DC66281DD067281BD0E9
:100ED000692821D06E2816D127E0702845D07328C4
:100EE00068D0752847D078280DD14DE0A1690B98BE
:100EF0008847054625283FF469AFE1690B98884784
:100F00006D1C3FF46AAFB4E023466A466FF00100FF
:100F10000B99AFF300809FE045F040006060A807A8
:100F200023464FF0000236D43EE0E8077FF447AF97
:100F30002068011D21600068290501D506701BE7A6
:100F4000290701D5068017E7A90703D5F117C0E9DE
:100F5000006111E706600FE745F040006060A807F8
:100F600023464FF0080216D41EE040F60E0125EA93
:100F70000100606016E045F040006060A80723466D
:100F80004FF00A0207D40FE045F040006060A80768
:100F900008D5234610226FF001000B99AFF30080B3
:100FA0005AE007E0234610226FF001000B99FFF78B
:100FB0005BF951E04FF000094F464B46632802D0E1
:100FC0005B2807D041E02079C00601D40120A06051
:100FD00001273AE062690121019890475E2805D116
:100FE0004FF001096269494601989047216939B972
:100FF00000210A46534643F82120491C0829FADB00
:10100000B0B3216969B9C11700EBD16253110AEB82
:10101000830122F01F02821A01200B6890400343D3
:101020000B6062690121019890475D28E8D1B9F110
:10103000000F09D00020514651F82020D24341F83A
:101040002020401C0828F7DB02AB224600976FF0F7
:1010500001000B99AFF3008000280CDA401C08D186
:10106000BBF1000F05D04FF0FF300DB0BDE8F08FA1
:10107000FFE74046F9E7E90701D108F10108064416
:101080004FF0000B78E60000CCCCCC0C7F2801D9C7
:10109000002208E0064A02EB5002C007127800D195
:1010A000120902F00F020120904008407047000032
:1010B000A089000870B58C1810F8015B15F00703C3
:1010C00001D110F8013B2A1106D110F8012B03E0E1
:1010D00010F8016B01F8016B5B1EF9D12B0705D4E9
:1010E0000023521E0DD401F8013BFAE710F8013B32
:1010F000CB1A921C03E013F8015B01F8015B521E4E
:10110000F9D5A142D8D3002070BDFEE7704700009A
:10111000164810B541684FF48074491C4160204660
:1011200000F03AF8002820D01149087A0006087A21
:1011300003D440F08000087212E0000610D5087A4F
:1011400020F080000872087A40F040000872C868F9
:10115000084AD0800020C860507940F0800050716B
:101160002046BDE8104000F007B810BDB8000020D0
:10117000580A00203811002001490860704700001B
:10118000140401400349024600200968114200D0BE
:101190000120704700040140064A01460020126801
:1011A000044B0A4014331B680B4202D0002A00D0C3
:1011B0000120704700040140F8B501217D2000F0B6
:1011C00087FC4FF6FF70ADF800000020304D8DF821
:1011D00003006946284600F065F82E4F69463846F8
:1011E00000F060F82C4E6946304600F05BF8694626
:1011F0002A4800F057F86946294800F053F80424BB
:10120000ADF800408DF803406946384600F04AF8D2
:1012100049F68150ADF800008DF80340694630462C
:1012200000F040F84FF4EC50ADF800008DF80340AA
:101230006946304600F036F86003ADF800008DF8DE
:1012400003406946284600F02DF80E20ADF8000056
:1012500010248DF8034003278DF802706946284654
:1012600000F020F842F20800ADF800008DF80340CD
:101270008DF802706946304600F014F80021012014
:1012800000F062F86102304600F093F80020F8BDEB
:1012900000080140000C0140001001400014014012
:1012A00000180140F0B5CA78002502F00F03D206FD
:1012B00001D58A7813430A784FF00F0E12F0FF0F12
:1012C0004FF001021CD004680F8802FA05F637407F
:1012D000B74211D14FEA850C0EFA0CF724EA070742
:1012E00003FA0CF43C43CF78282F02D0482F02D0C9
:1012F00002E0466100E006616D1C082DE4D3046045
:101300000C88FF2C1ED944685FF0000606F1080720
:1013100002FA07F50F882F40AF420FD14FEA860C33
:101320000EFA0CF7BC4303FA0CF73C43CF78282F96
:1013300000D14561CF78482F00D10561761C082E79
:10134000E4D34460F0BD0000F0B5144C002801DA8D
:10135000E36900E06368420D120185B2C0F30157F2
:101360009540C0F30346032F05D0C2020AD50322DD
:10137000B240934307E023F07062636823F0706328
:10138000636002E0AB4343F0706201B12A4300287E
:1013900001DAE261F0BD6260F0BD000000000140D2
:1013A0000246002092680A4200D001207047416145
:1013B000704701617047FEE70029018802D041F4BF
:1013C000806101E021F480610180704702460020C5
:1013D000938A128B43EA024323F07F42914300D168
:1013E000012070470029018802D041F0010101E08D
:1013F00021F0010101807047094910B588424FF082
:10140000010101D14C0501E04FF48004204600F0B9
:1014100053FB2046BDE81040002100F04DBB00000A
:10142000005400400029018802D041F4807101E09D
:1014300021F48071018070470029018802D041F4B5
:10144000007101E021F40071018070470CB5024683
:10145000002000920A0F21F07F41019202D0009AF1
:10146000143202E0009A090C1832009212680A4203
:1014700000D001200CBD000070B50446808886B005
:101480000D4620F03F06684600F03AFB27490298D7
:10149000B0FBF1F189B20E43A680228822F001024E
:1014A0002280234B2A689A421CD85200B0FBF2F0EB
:1014B00080B2042800D20420491C2184A083208803
:1014C00040F00100208021884FF6F5300140A888C7
:1014D0006A89104308432080A8892989084320810C
:1014E00006B070BDEB88A3F53F46FF3E0BD002EB84
:1014F000C20303EB0212B0FBF2F080B240F4804072
:10150000020506D007E002EB4202B0FBF2F080B227
:10151000F6E740F001004FF4967251434FF47A72AF
:10152000B1FBF2F140F40040C6E7000040420F007A
:10153000A0860100B1F5006F018803D021F400619D
:101540000180704741F40061FAE7008AC0B2704739
:1015500012B141F0010101E001F0FE01018270478A
:10156000018270472DE9F04788461D4616468146A0
:101570000121FFF757FF294F642439464846FFF7FA
:1015800025FF10B9641EA4B2F7D200224146484696
:10159000FFF7DEFF14B9224900200860214F6424C0
:1015A00039464846FFF712FF10B9641EA4B2F7D2BD
:1015B00031464846FFF7D4FF1A4E6424B61C314624
:1015C0004846FFF703FF10B9641EA4B2F7D22946BC
:1015D0004846FFF7C5FF642431464846FFF7F6FE4C
:1015E00010B9641EA4B2F7D201214846FFF724FFC8
:1015F0000D4D642429464846FFF728FF10B1641EAC
:10160000A4B2F7D200214846FFF7D6FE4F20401E75
:1016100080B2FCD20020BDE8F0870000010003008A
:101620009C010020820007001000001038B5012145
:10163000480500F035FA0121092000F049FAC020E0
:10164000ADF8000003208DF802001C208DF8030087
:1016500069461148FFF726FE104C2046FFF7CCFEE6
:101660000F49002088804BF6FF70C8803020088129
:1016700020154881000188810A4808600121204620
:10168000FFF7B0FE06492046FFF7F6FE012120468F
:10169000FFF792FE38BD0000000C014000540040EE
:1016A0005C110020801A0600FEE7704770B50F231A
:1016B000C47801780122F4B1144C2468457804F40C
:1016C000E064C4F5E064240AC4F10406E3408478CD
:1016D000B5401C402C4301F1E021230181F8003486
:1016E000007800F01F018A404009800000F1E020EE
:1016F000C0F8002170BD01F01F0082404809800041
:1017000000F1E020C0F8802170BD00000CED00E089
:101710000249084302490860704700000000FA05CA
:101720000CED00E00907090E002806DA00F00F00B2
:1017300000F1E02080F8141D704700F1E02080F8EF
:101740000014704710B54FF480610348FEF727FD81
:10175000BDE8104000F002B86C11002070B5114EC9
:10176000002400BF04F1B000C0B2002100F080F9F5
:101770000021084600F07CF90021102000F078F9E3
:101780005FF0000505EBC4100121305C00F070F93A
:101790006D1CEDB2802DF5D3641CE4B2082CE1D3AE
:1017A00070BD00006C11002010B50021AE2000F0CB
:1017B0005FF90021084600F05BF90021102000F0DD
:1017C00057F90021402000F053F90021812000F05A
:1017D0004FF90021CF2000F04BF90021A12000F0AB
:1017E00047F90021C82000F043F90021A62000F0AD
:1017F0003FF90021A82000F03BF900213F2000F034
:1018000037F90021D32000F033F90021084600F019
:101810002FF90021D52000F02BF90021802000F0C5
:1018200027F90021D92000F023F90021F12000F050
:101830001FF90021DA2000F01BF90021122000F02E
:1018400017F90021DB2000F013F90021402000F0FF
:101850000FF90021202000F00BF90021022000F0F8
:1018600007F900218D2000F003F90021142000F079
:10187000FFF80021A42000F0FBF80021A62000F0D2
:10188000F7F80021AF2000F0F3F80021AF2000F0BE
:10189000EFF8FFF757FF0021BDE810400846AFF30F
:1018A000008010B50446B031C8B2002100F0E0F865
:1018B000102040EA1410002100F0DAF804F00F00C4
:1018C000BDE8104040F00100002100F0D1B8000058
:1018D0002DE9F041164688460446402902D8194FA2
:1018E000802C2AD90020BDE8F081002505EB0510E9
:1018F000317817F810208A420ED107EB4000727839
:101900004078904208D1802906D92A46414620468F
:1019100000F01AF81034E4B23278A2F11500692808
:1019200006D210234146204600F02EF80834E4B2D7
:101930006D1CEDB25F2DD9D3761C30780028D4D140
:101940000120D0E7D47100082DE9F0410C4605468E
:1019500002EB02110A480B4F00EB410605EBC410E5
:10196000B11C38441022FEF701FCE001803028440D
:10197000384406F11201BDE8F0411022FEF7F6BB33
:10198000D47100086C11002070B5A2F12004E5B2FA
:101990007F2802D90020891CC9B2174C102B0DD00A
:1019A000C90180310844154A05EB450102EB4101AC
:1019B00020440A6802608988818070BD00EBC116EE
:1019C0000023C90180310E4D0844264400EB040079
:1019D00003EB03116C5C944209D1294451F8014F87
:1019E00034604C6874608C680460C96841605B1C3A
:1019F000DBB25F2BECD370BD6C110020827F00083E
:101A0000AA8100082DE9F04F0026DDF824901D463C
:101A100092468B46804634464FEA590723E0281BFE
:101A2000401EC1B20A2004F02CFCBAFBF0F00A21DF
:101A3000B0FBF1F201FB120026B9691E8C4201DAFB
:101A400038B101263030C2B207FB0480C0B24B4629
:101A500004E007FB0480C0B24B4620225946FFF742
:101A600093FF641CE4B2AC42D9D3BDE8F08F000010
:101A7000084A30B41268012A0AD1074C034609B15A
:101A8000402200E00022204630BC7821FFF76ABDEA
:101A900030BC70479C01002000540040704700009B
:101AA000044A0029D16901D0014300E08143D1619A
:101AB0007047000000100240044A0029116901D05B
:101AC000014300E0814311617047000000100240B3
:101AD000044A0029916901D0014300E081439161EA
:101AE0007047000000100240044A0029D16801D06C
:101AF000014300E08143D1607047000000100240C4
:101B000030B5224A5168224B11F00C0103D0042950
:101B100003D0082903D0036016E01E4913E0516882
:101B2000536801F470114FF0020413F4803F04EB8A
:101B3000914104D053689B0303D5154B02E0164B2B
:101B400000E0144B5943016051680F2303EA11115F
:101B5000124B5C5C0168E14041605468072505EA6E
:101B600014241C5D21FA04F48460546805EAD4242A
:101B70001B5DD940C1605268032303EA9232074BD0
:101B80001B1F9A5CB1FBF2F1016130BD00100240F5
:101B900000127A000024F40000093D00300100200A
:101BA00010B5642214A1154802F03CFB642002F039
:101BB0008FFB1248642210A10C3002F033FBC822C4
:101BC0000DA10FA002F02EFB4FF47A7002F080FB03
:101BD0000A48C82208A12A3002F024FB642002F03F
:101BE00077FB0648C82204A1363002F01BFBBDE893
:101BF0001040642002F06CBB4F4B0000D97000080D
:101C000041542B52535400002DE9F04107460B4834
:101C100015460E46007808B901F03EFAEFF311843C
:101C2000202080F311882A463146384600F008F813
:101C3000E1B281F31188BDE8F0810000A815002011
:101C400070B50E46144900EB400001EBC005144688
:101C5000E86A183520B101280FD0022805D113E019
:101C6000284601F04DFAA04201D2002411E022469C
:101C70003146284601F06AFB0BE0284601F040FAA5
:101C8000A042F4D20446F2E73146284601F031FB87
:101C90000446204670BD0000A81500200FB408B50A
:101CA00004A900916A46039900F003F801B05DF8B9
:101CB00014FB2DE9F04198B0064607A80290402099
:101CC0000025CDE90305CDE9055690460C4614F8EC
:101CD000011B002973D0252908D002A801F0EAFAD7
:101CE00005980028F3DA18B0BDE8F0810020012142
:101CF0002278232A1ED02B2A19D02D2A02D0302A4E
:101D000008D102E040F0010001E040F00200641C54
:101D10000029EDD100222178A1F130030A2B0CD249
:101D200002EB820201EB4202303A641CF3E740F01E
:101D30000400ECE740F00800E9E70023CFB22E2FC3
:101D40000BD114F8011FA1F130070A2F05D203EBC4
:101D5000830301EB4303303BF3E76C290DD0682983
:101D60000BD0702954D00BDC252916D0582931D03E
:101D700063290CD0642913D114E014F8011FECE797
:101D8000732934D075291BD0782909D122E0D8F8DD
:101D90000000011DC8F80010017802A801F08AFABD
:101DA000641C9DE7D8F800100F1DC8F80070096882
:101DB000CDE900200A2202A801F0AEF9F0E733E0F5
:101DC000D8F800100F1DC8F800700968CDE9002090
:101DD0000A2208E0D8F800100F1DC8F80070096842
:101DE000CDE90020102202A801F0FAF9D8E7D8F8CE
:101DF0000000011DC8F80010076817F8011B002932
:101E0000CED002A801F056FA05980028F5DAC7E707
:101E1000D8F80000011DC8F8001001680820CDE9BD
:101E2000000503461022DEE7059800287FF75BAF28
:101E3000049820B1024607A93046FFF7E5FEDDE928
:101E40000410084405904EE77CB5002000908DF802
:101E50000400FE20184C8DF8000001236A46802102
:101E6000204603F055F942F22831491E89B2FCD2CE
:101E7000E7258DF8005001236A468021204603F0B3
:101E800047F9012301AA8021204603F099F8022393
:101E9000E62280212046FFF765FB8DF800500123E4
:101EA0006A468021204603F033F9012301AA8021EC
:101EB000204603F085F87CBD005400402DE9FC412C
:101EC00006460020019005460090F5201E4F8DF833
:101ED0000400012301AA8021384603F019F94FF6C6
:101EE000FD742046401E80B2FCD203236A46802146
:101EF000384603F065F860B1142D07D913A100200E
:101F000001F046FA4FF0FF30BDE8FC816D1CEDB2E8
:101F1000E7E79DF8010020F003008DF80100BDF80F
:101F2000000040BAFEF7B6FCFEF7F7FC0E4A0F4B76
:101F3000FEF7AFFB00220E4BFEF7A5FBFEF718FDE8
:101F400030600020E0E70000005400405348543265
:101F5000305F726561645F74656D2074696D6520C2
:101F60006F757420303300007644CF7701405F3FB7
:101F7000000018402DE9FC4106460020019005466E
:101F80000090F3201D4F8DF80400012301AA802149
:101F9000384603F0BDF84FF6FD742046401E80B26F
:101FA000FCD203236A468021384603F009F858B171
:101FB000142D06D912A001F0EBF94FF0FF30BDE867
:101FC000FC816D1CEDB2E8E79DF8010020F00300F4
:101FD0008DF80100BDF8000040BAFEF75BFCFEF78B
:101FE0009CFC0E4A0E4BFEF754FB0E4A0E4BFEF7BE
:101FF0004AFBFEF7BDFC30600020E0E700540040E3
:1020000053485432305F726561645F74656D20744B
:10201000696D65206F75742030330000619FC6DEE6
:1020200007F7653FCDCCCCCCCC6C4740034A118838
:1020300021F0380101431180704700000030014059
:102040000029018802D041F0400101E021F0400167
:1020500001807047F0B5294E87B0304600F052F845
:102060000021ADF800104FF48270ADF80200ADF819
:1020700008107015ADF80A001024ADF80410ADF882
:102080000C400720ADF80610ADF80E10ADF81000AA
:102090006946304600F067F8A020ADF8140018201B
:1020A0008DF81700164F03258DF8165005A93846F0
:1020B000FFF7F8F84020ADF8140048208DF817001D
:1020C00005A93846FFF7EEF8ADF814408DF8174033
:1020D0008DF8165005A93846FFF7E4F80021304680
:1020E00000F05DF801213046FFF7AAFF10213846C5
:1020F000FFF75FF907B00020F0BD0000003001409D
:1021000000080140114910B588420AD18414012108
:102110002046FFF7E9FC2046BDE810400021FFF70C
:10212000E3BC0B49884202D10121041404E00949AF
:1021300088420AD10121C4132046FFF7BDFC204686
:10214000BDE810400021FFF7B7BC10BD00300140D2
:1021500000380040003C00400246002012890A423C
:1021600000D00120704730B502884C8802F44153FA
:102170000A88CD8822438C882C4322430C89224331
:102180004C8922438C892243CC8922431A43028002
:10219000828B22F400628283098A018230BD002989
:1021A000818802D041F0040101E021F00401818026
:1021B00070470000F8B50E4604462549244808310A
:1021C00050F8240051F82410084340F00100012188
:1021D000FFF77EFC1E4808389CB350F8240001210C
:1021E000FFF75EFC18208DF803001948694618387F
:1021F00030F81400ADF8000003208DF802001548F7
:1022000050F82400FFF74EF804208DF80300104822
:102210006946143830F81400ADF800000D48083055
:1022200050F82400FFF73EF80A4D3146083D55F8B6
:10223000240000F0D1FE55F82400012100F049FEF1
:10224000F8BDFFE700680121FFF742FCCAE7000084
:10225000447100085C0100200349044A31F8101061
:1022600052F8200041617047347100086C01002071
:102270000349044A31F8101052F8200001617047F8
:10228000347100086C0100207047000000200349F1
:1022900002460A54401C0228FBDB70472500002040
:1022A0000CB50021264801910091026842F4803269
:1022B00002604FF4A063026802F400320092019AB7
:1022C000521C0192009A12B9019A9A42F3D1026803
:1022D000920333D5012100911A490A6842F0100295
:1022E0000A600A6822F003020A600A6842F00202E9
:1022F0000A604168416041684160416841F4806121
:102300004160416821F47C114160416841F4F81159
:102310004160016841F08071016001688901FCD56C
:10232000416821F003014160416841F002014160D0
:102330004168C1F381010229FAD10CBD00910CBDA5
:10234000001002400020024070B50F484FF47A712F
:102350000068B0FBF1F0B0F1807F14D220F07F4034
:102360004FF0E024401E606165170F212846FFF7FB
:10237000D9F90020A0610720206103212846FFF73A
:10238000D1F9002070BDFEE740010020024801683D
:10239000491C016070470000000000200F4810B584
:1023A000016841F00101016041680D4A114041603E
:1023B00001680C4A11400160016821F4802101602C
:1023C000416821F4FE0141604FF41F018160FFF775
:1023D00067FF05494FF00060086010BD0010024023
:1023E0000000FFF8FFFFF6FE08ED00E070B5048C7A
:1023F00024F001040484058B048C4FF6FF7606EA72
:102400000313134325F0F3050E4A2B4390420ED0DD
:102410000D4A90420BD0B0F1804F08D00B4A904249
:1024200005D00B4A904202D00A4A904202D124F0D1
:10243000020201E024F00A020A4342F00101038390
:10244000018470BD002C01400034014000040040B4
:1024500000080040000C0040F0B5048C24F010048B
:102460000484078B048C4FF6FF7527F4734705EA45
:1024700003333B4305EA02221A43114B05EA0116D6
:1024800098420ED00F4B98420BD0B0F1804F08D03D
:102490000D4B984205D00D4B984202D00C4B984200
:1024A00005D124F02001314341F0100104E024F073
:1024B000A0030B4343F0100102830184F0BD000030
:1024C000002C01400034014000040040000800409E
:1024D000000C00407FB501210846FFF7E1FA6320B8
:1024E000ADF804004720ADF8000000244FF080450F
:1024F000ADF80640ADF802406946284600F038FACB
:1025000001221146284600F0F7F91C208DF80C0036
:1025100001218DF80D108DF80E408DF80F1003A8D5
:10252000FFF7C4F80121284600F037F90148C460DC
:102530007FBD0000580A002070B501218C0720469D
:1025400000F037F900284ED0274A9068401C906070
:102550002649087A000602D5C868401CC8600120D8
:1025600008709368DB0700D1487093680A25B3FBB5
:10257000F5F605FB163303B9887093686425B3FB41
:10258000F5F605FB163303B9C8709368C825B3FB8D
:10259000F5F605FB163303B9087193684FF4FA7525
:1025A000B3FBF5F605FB163303B9487193684FF496
:1025B0007A75B3FBF5F605FB163303B9887192689B
:1025C00041F28833B2FBF3F503FB152202B9C8715F
:1025D0000121204600F0DEF82046BDE870400122CF
:1025E000114600F089B970BD08000020580A00208B
:1025F00010B50A4C0121204600F0DBF800280CD071
:102600004FF4C873064A07A10020FFF747FB204696
:10261000BDE81040012100F0BDB810BD000400402D
:10262000B97000083C25733E5B25645D0D0A0D0AF8
:102630000000000010B501210220FFF731FA01214E
:10264000BDE810400920FFF743BA000070B54C4DBB
:102650000121284600F0ADF84A4C002690B32078BE
:10266000010611D520F010002070010702D140F0C2
:1026700040002070C0B200F00F010E2901D2401CB2
:1026800001E000F0700020703F490888400402D546
:102690000888401C08800888C0F30D000A2803D968
:1026A000088840F4004008800888000406D53748B0
:1026B000028842F40042028008880E8001212846E8
:1026C00000F068F80821284600F073F8002856D07A
:1026D0004FF480712E48FEF763FE002828460ED086
:1026E00000F065F8A0800221284600F00DF90021D5
:1026F000284600F013F9207840F0100038E000F090
:1027000056F8A0800021284600F0FEF82178C8067F
:102710002BD50806A0881ED5A0F1650340F21F3214
:10272000934202D2E068400007E0A0F2B143934236
:1027300005D2E068400040F00100E06015E0A0F63E
:102740009900B0F5C77F10D86078401C607001F028
:10275000F000207009E040F2DB52A0F6A170904238
:1027600003D241F0800020706670207820F01000C5
:1027700020702846BDE87040082100F00BB870BDFD
:102780000008004008000020B4000020B200002033
:10279000000C0140C943018270470029018802D022
:1027A00041F0010101E021F0010101807047808FBB
:1027B000704702460020138A92890B4202EA010206
:1027C00002D0002A00D00120704700002DE9F05F00
:1027D0000D4604460888434FDFF80CC1DFF80C8132
:1027E0004988AA882B894FF0804960B3042833D0E8
:1027F0004FF6FF7E082838D0208C9B4620F480506E
:102800002084A38B268C704600EA022223F47343B3
:102810001A4300EA0B3010430EEA013EBC420BD0D3
:10282000644509D04C4507D0444505D0304A944210
:1028300002D0304B9C4248D126F4005141EA0E01AF
:1028400041F4805146E02046FFF7D0FDE98820465C
:10285000BDE8F05F00F064B82046FFF7FDFDE988B1
:102860002046BDE8F05F00F063B8208C20F4807053
:102870002084B4F81CA0208C0EEA031313432AF022
:10288000F30A0EEA012B43EA0A03BC420BD064456B
:1028900009D04C4507D0444505D0154A944202D092
:1028A000144A944204D120F4007040EA0B0002E084
:1028B00020F42060084340F48070A3832084E988DA
:1028C0002046BDE8F05F00F03FB826F402420A431C
:1028D00042F48051A08320462184E988BDE8F05F5E
:1028E00000F03AB8002C01400034014000040040E0
:1028F00000080040000C0040002A828901D00A43F1
:1029000000E08A4382817047028C4FF6FF7322F405
:10291000007203EA012111430184704781847047EA
:10292000028B22F00C020283028B0A43028370475F
:10293000028B22F440620283028B4FF6FF7303EA9C
:1029400001210A4302837047828B22F00C028283AA
:10295000828B0A4382837047828B22F44062828397
:10296000828B4FF6FF7303EA01210A43828370478B
:1029700030B502881B4B1C4C98420DD0A0420BD0A6
:10298000B0F1804F08D0194DA84205D0184DA8428B
:1029900002D0184DA84203D122F070054A882A437C
:1029A000154DA84206D0154DA84203D022F440751B
:1029B000CA882A4302808A8882850A8802859842CA
:1029C0000AD0A04208D00E4A904205D00D4A90424B
:1029D00002D00D4A904201D1097A018601218182FB
:1029E00030BD0000002C01400034014000040040D4
:1029F00000080040000C004000100040001400409F
:102A00000040014000440140004801402DE9F04FE2
:102A1000DFF814B30026C54F85B04FF00F0AB1465A
:102A2000ABF14208962002F06AF840F68C2002F0E2
:102A30007DF898F800108BF8021044468BF803A03C
:102A40000022B9490C2002F042F900210C2002F0CA
:102A50004FF9022002F09CF8002001F0C7FF00218E
:102A60000F2001F07AFF3842A060F8D00221B04870
:102A7000FEF79FFC2089A04640047CD54FF481429C
:102A800000210F2002F0F5F80021102001F065FF71
:102A900000F07F01302903D80022A64801F091FF01
:102AA000A448817888F80110C1780F297ED19E4909
:102AB00080F8039080F802900A220C31FDF793FB16
:102AC00040B199490A2233319A48FDF78CFB00281E
:102AD0006DD0ECE000252C46684601F081FF042013
:102AE0006A46240244EA15642B02155C1D43401E0D
:102AF000F7D5C8E9045400252C46104601F06AFFBA
:102B000004206946240244EA15642A020D5C154338
:102B1000401EF7D54FF02F60C8E90654281844F13D
:102B20000001040A44EA0164204601F087FF24F012
:102B30000100010E0202C8E908217B48D8E90423FC
:102B40004C46253002F01AFA7748D8E90623293096
:102B500002F014FA7448D8E908232D3002F00EFA76
:102B6000714898F800101B300022817080F803A093
:102B70000146182000E08FE002F0A9F8002118209B
:102B800002F0B6F8962001F0BAFF41F2185001F0B9
:102B9000CDFF032001F0FCFF454600210F2001F08E
:102BA000DCFE3842A860F8D0288901E084E08BE0A0
:102BB000400477D54FF4814200210F2002F059F8EC
:102BC0000021102001F0C9FE00F07F01302903D858
:102BD0000022584801F0F5FE564881786970C178A6
:102BE0000F2969D15049C47084700A220F39FDF74A
:102BF000FAFA38B14C490A2233314E48FDF7F3FA5C
:102C0000A0B154E04B484FF4DD73C17A807A00EBF9
:102C1000C00202EB001001EB80006978CDE90010E2
:102C2000454A46A10020FFF739F840E068784B4C50
:102C300000EB400202EBC00004EB80000121417078
:102C40003C494A7B0B7B02EB03224260CA7B8B7BB5
:102C500002EB032282604A7C0B7C02EB0322C260FF
:102C6000CA7C897C02EB012101613D4A00210F20D1
:102C700001F0FFFF69780DF1040C01EB410000EB5E
:102C8000C10004EB8000001D1DC800918CE81D00F0
:102C900040F2C713284A00E004E032A10020FEF70A
:102CA000FDFF04E02E4A00210F2001F0E2FF98F81A
:102CB0000010491C88F80010761CF6B2042EFFF4B0
:102CC000B1AE05B0BDE8F08F98F80150012205EBD8
:102CD000450000EBC501214800EB810115484A7011
:102CE000427B037B02EB03234B60C27B847B02EBC2
:102CF00004228A60447C90F810C004EB0C24CC6061
:102D000090F813C0807C0CEB002008610095CDE9A1
:102D10000132CDE903404FF4EF73074A11A10020BF
:102D2000FEF7BCFFBEE700006200002000D02724B1
:102D300000080140D40B0020C97000083C25733EF8
:102D40005B25645D0D0A414E43484F525F49443A4A
:102D500025642D2D4C3A25640D0A0000AC0A002094
:102D6000009027243C25733E5B25645D0D0A414E8F
:102D700043484F525F49443A25642D2D4C3A25640F
:102D80002020583A25642020593A256420205A3AB8
:102D900025640D0A00000000F0B50C46054687B01A
:102DA00001210420FEF77CFEADF80C4000241C4FEE
:102DB000ADF81050ADF81240ADF80E4003A93846FA
:102DC000FFF7D6FD0820ADF800000125ADF804504E
:102DD0000326ADF80240ADF80640ADF8086069463C
:102DE0003846FFF7F3FC012208213846FFF784FD3F
:102DF0001E208DF818008DF819608DF81A408DF896
:102E00001B5006A8FEF752FC012211463846FFF778
:102E100073FD01213846FFF7C0FC07B0F0BD00008C
:102E20000008004010B586B004464E290FD0134666
:102E30000A4608A1684600F0D5FA0A220AA16846A7
:102E400001F0F0F90A2208A1204601F017FA06B0B5
:102E500010BD000041542B43495053454E443D257D
:102E6000642C2564000000004F4B000010B5144C8A
:102E700040F22551204600F078F8002819D020466D
:102E800000F000F9C2B20F480188090411D401888A
:102E9000B1F5167F0ED2418800214180418841F46E
:102EA0008041418001880188074B0B44491C018007
:102EB0001A7010BD018841F40041018010BD00006E
:102EC00000480040B2000020880C0020C943018067
:102ED00070470029818902D041F4005101E021F4BA
:102EE0000051818170470000174910B588420AD10E
:102EF00001218C032046FEF7F7FD2046BDE8104077
:102F00000021FEF7F1BD1149884202D101214C0494
:102F100010E00F49884202D101218C040AE00D49DA
:102F2000884202D10121CC0404E00B4988420AD135
:102F300001210C052046FEF7BFFD2046BDE81040EC
:102F40000021FEF7B9BD10BD00380140004400402B
:102F500000480040004C0040005000400246002065
:102F600012880A4200D00120704730B501F01F02DC
:102F700001240025C1F3421304FA02F2012B0FD001
:102F8000022B0FD0838A4FEA11210088134204FAE2
:102F900001F400EA040001D000B10125284630BD4B
:102FA0008389F0E7038AEEE710B5C1F3421301F01D
:102FB0001F040121A140012B07D0022B07D01430A0
:102FC000002A026805D00A4304E00C30F8E710300C
:102FD000F6E78A43026010BD30B50446008A85B02A
:102FE0000D464CF6FF710840E98801432182A18912
:102FF0004EF6F3100140A8882A8910436A890A43D3
:103000001043A081A08A4FF6FF410840A9890143DF
:10301000A1826846FEF774FD1948844201D10398E5
:1030200000E00298A189090400EBC00101EB001047
:10303000296801D5490000E08900B0FBF1F0642265
:10304000B0FBF2F109010B096FF018056B4300EBBF
:103050008300A3891D044FF0320306D503EBC000A3
:10306000B0FBF2F000F0070005E003EB0010B0FB4E
:10307000F2F000F00F000843208105B030BD0000E1
:10308000003801408088C0F308007047C1F3080190
:1030900081807047FEE7000010B5124C03202061CC
:1030A000606111A0A06104F1A800E0614FF48060AC
:1030B00020620020A06260620BA12166E06204F53C
:1030C0009561616610212067C4E91A10606709A143
:1030D000E01DFDF795F808A12046FDF791F82020A6
:1030E000A07110BDA81500205465726D696E616CE9
:1030F0000000000052545400534547474552000019
:103100000269C1688A4203D88068401A104400E00E
:10311000501A401E704700002DE9FC5F0E008146EA
:10312000DDE90C47C6F1000098469346824600D47C
:103130000846012503E000BF90FBFBF06D1C5845DD
:10314000FADAA84500D9454624B1002E01DB7807FC
:1031500000D5641EB80702D5B8F1000F0FD0F807EC
:103160000DD164B1A5420AD220214846641E00F068
:10317000A1F8D9F80C000028F3DABDE8FC9FD9F8D3
:103180000C000028F9DB002E02DA56462D2102E061
:10319000780707D52B21484600F08CF8D9F80C00A9
:1031A0000028EADB07F0030002280FD1B8F1000F76
:1031B0000CD15CB1A54209D230214846641E00F012
:1031C00079F8D9F80C000028F3DAD6E7CDE9004702
:1031D00043465A463146484600F002F8CDE7000023
:1031E0002DE9F84F8246DDE90A4B012698469146C3
:1031F0000D460846374602E0B0FBF9F07F1C484513
:10320000FAD2B84500D947465FEACB7017D1B4B1BE
:103210005FEA8B7002D5B8F1000F02D02020009039
:103220000BE03020FBE75046641E009900F042F8A6
:10323000DAF80C00002838DB0CB1A742F3D3DAF837
:103240000C00002831DB00BFB8F1010F02D9A8F152
:10325000010803E0B5FBF6F0484502D306FB09F68A
:10326000F2E7DFF84C8000BFB5FBF6F000FB165527
:1032700018F80010504600F01DF8DAF80C0000288D
:1032800003DBB6FBF9F6002EEED15FEACB700CD073
:10329000002C0AD0A74208D220215046641E00F01C
:1032A00009F8DAF80C000028F2DABDE8F88F00001F
:1032B000AA88000810B50446D4E90130421C9342A4
:1032C00005D323681954A260E068401CE060D4E98B
:1032D0000102824209D121682069FEF795FCA168AC
:1032E000884203D04FF0FF30E06010BD0020A060A6
:1032F00010BD2DE9F047C4681746894606464FF0D1
:1033000000083069A04201D9051B02E0B168201A0B
:103310000D1AB0686D1E001BA84200D80546BD42BC
:1033200000D33D4670682A4620444946FCF71EFFFC
:10333000B0687F1B2C44A844A944A04200D10024BB
:10334000F460002FDDD14046BDE8F0872DE9F04163
:1033500004468846D4E90207C51BE1686068164642
:103360000844B54206D94146FCF700FFB819E060B1
:10337000BDE8F0812A464146FCF7F8FE761B08EBD3
:10338000050132466068FCF7F1FEE660F0E70000F8
:103390000FB4054B10B503A9044A029800F062FA75
:1033A00010BC5DF814FB0000954F0008A001002040
:1033B0000FB47CB50C0009AD01D0611E00E0002106
:1033C000CDE90001064B6A462946089800F04AFA02
:1033D000002C02D0009A002111707CBC5DF814FB17
:1033E0006B3F00080FB4084B10B504A902AA03985C
:1033F00000F038FA044602A9002000F0C1FD204682
:1034000010BC5DF814FB0000813F000837B514467E
:103410000846064B6A46214600F024FA04466946EF
:10342000002000F0ADFD20463EBD0000813F0008B9
:10343000490050EAC12018BF04204A0D18BF40F0CF
:10344000010040F2FF72B2EB515F08BF40F0020092
:10345000012808BF052070472DE9F0414F1E00EB01
:10346000C7010446D1E9000115461E4637F00602A1
:103470000DD02A463346FDF70CF97F1E04EBC70337
:10348000D3E90023FDF75EF837F00602F1D1022FF1
:1034900025D0042F13D0062F18BFBDE8F0812A468F
:1034A0003346FDF7F6F8D4E90A23FDF74BF82A4630
:1034B0003346FDF7EEF8D4E90823FDF743F82A4632
:1034C0003346FDF7E6F8D4E90623FDF73BF82A4634
:1034D0003346FDF7DEF8D4E90423FDF733F82A4636
:1034E0003346FDF7D6F8D4E90223FDF72BF82A4638
:1034F0003346FDF7CEF8D4E90023BDE8F041FDF7EF
:1035000021B800000022134610460149FDF733B9E7
:103510000000F03F0122FDF79DB9FDF713B800222E
:10352000134610461146FDF726B940F2013200203D
:103530004FF0E041FDF78EB9024A00201107FDF778
:1035400089B9000001FDFFFF02E008C8121F08C191
:10355000002AFAD170477047002001E001C1121F14
:10356000002AFBD170470000014908607047000045
:10357000A401002038B504466D208DF800006B468C
:10358000012240F606012E2001F082FB41F60601E1
:1035900014B140F2076201E041F207622E2001F00F
:1035A0005BFB38BD38B504466B460222002136204D
:1035B00001F0EAF90E2C2CD2DFE804F00F07152BEE
:1035C0002B2B2B1D392B2B44494E00208DF800004E
:1035D0009DF8010000F0FE0019E09DF8000000F0E9
:1035E000FC00401C04E09DF8000000F0FC00801C82
:1035F0008DF800000DE09DF8000000F0B30040F0F1
:1036000048008DF800009DF8010040F080008DF822
:1036100001006B4601220021362001F039FB012216
:10362000114636200DF1010301F032FB38BD9DF843
:10363000000000F0B3008DF800009DF8010000F0DC
:103640007F00E4E79DF8010040F00200DFE79DF80D
:10365000010000F0FD00DAE79DF8000000F0CF0067
:1036600040F02000C4E708B503208DF801000120D8
:103670008DF800006B4602220021362001F008FB85
:103680004FF4004206212D2001F0E6FA012000F05F
:103690001FFE0120FFF786FF08BD08B5010A8DF85F
:1036A00001108DF800006B46022204212D2001F04C
:1036B000EFFA03208DF800006B46012206212D2031
:1036C00001F0E6FA00208DF800006B460122062189
:1036D0002D2001F0DDFA0A212D2001F03EF908BD70
:1036E0002DE9FF5F82B00021DDE90430020DDDF835
:1036F00040B0034318D044F61050A2F2FF324243C8
:103700001514119801281FD0A5EB0B00401C5FEA8F
:10371000000A4FF000064E4FDFF83891B046504691
:1037200015D5CAF1000413E0119801244AA3012819
:1037300001D16FEA0B010298119AC0E90031C0E98A
:10374000024206B0BDE8F09FCBF10000DFE704467F
:103750000021404A491842EB0450CDE9001012E024
:10376000E00707D032463B4640464946FCF791FF0A
:103770008046894632463B4610461946FCF789FF8B
:1037800006460F466410002CEAD1DDE90401DDE9AC
:103790000023BAF1000F06DAFCF77BFF42464B46E6
:1037A000FCF777FF05E0FCF7E6FF42464B46FCF7E7
:1037B000E2FF04460E460022284BFDF7C1F803D86D
:1037C0004FF0FF30014607E00022254B20463146EE
:1037D000FCF7B8FEFDF791FA102409E0002C0ADB93
:1037E0000A220023FDF700F9039B30321A55641EAC
:1037F00050EA0102F2D1641C039AC4F1110314448B
:10380000119A012A03D0012208430DD10AE008438E
:1038100004D000204FF0110B119072E7A3EB0B05C1
:103820006D1E0DE05B4504DD4FF0000205F1010562
:1038300004E003DA4FF00002A5F10105002AECD004
:1038400002981199C0E90231C0E9004579E700000A
:10385000000014400000F03F300000000000F04382
:103860000000E03F2DE9FF4F95B09A468846064696
:103870000025EEE1252877D100242746F94A0121C9
:10388000039400E0044316F8013F203B01FA03F0E3
:103890001042F7D130782A2811D06FF02F033078FA
:1038A000A0F13002092A16D8039A44F0020402EB70
:1038B000820203EB42021044761C0390EFE758F8B3
:1038C000042B0392002A03DA504244F4005403907C
:1038D00044F00204761C30782E2816D116F8010F19
:1038E00044F004042A280DD06FF02F023078A0F1A4
:1038F0003003092B09D807EB870302EB4303C718F2
:10390000761CF3E758F8047B761C30786C280FD0CF
:1039100006DC4C2817D068280DD06A2814D104E0A2
:10392000742810D07A280FD10DE044F400140AE076
:1039300044F4801401E044F440147278824202D1CD
:1039400004F58014761C761C307866280BD013DCC6
:10395000582877D009DC002875D04528F6D04628AD
:10396000F4D047281AD193E118E0632835D06428B1
:1039700079D0652812D18BE1702873D008DC6728D4
:10398000F1D069286FD06E280DD06F2806D1ACE039
:1039900073282CD0752874D0782853D052461799A4
:1039A00090476D1C54E1C4F30250022809D003284B
:1039B0000DD0D8F8001004280DD00D6008F10408CF
:1039C00046E1D8F80010EA17C1E90052F6E7D8F846
:1039D00000100D80F2E70D70F0E718F8041B8DF869
:1039E000001000208DF80100EB46012003E058F89C
:1039F00004BB4FF0FF3061074FF0000102D40DE02F
:103A000009F101018946B9420FDA8145F8DB1BF85B
:103A100009100029F4D108E009F101018946814229
:103A2000FADB1BF809100029F6D103985346A0EBE6
:103A3000090721463846179A00F080FA284400EB1F
:103A4000090507E044E008E10DE01BF8010B5246D0
:103A500017999047B9F10109F7D2534621463846E4
:103A6000179AF2E039E00A21C4F302524FF0000B3A
:103A70000091022A06D058F8040BC117032A09D076
:103A80000AE023E008F1070020F00702F2E8020153
:103A9000904605E000B2C117042A01D140B2C11717
:103AA000002906DA0A460021404261EB02012D227C
:103AB00002E0220504D52B228DF80420012203E028
:103AC000E20701D02022F7E7914657E00A2100E003
:103AD00010214FF0000B00910BE010214FF0000B74
:103AE00044F004040827009103E008204FF0000B85
:103AF0000090C4F30252022A05D058F8040B0021AA
:103B0000032A08D008E008F1070020F00702F2E8D5
:103B10000201904603E080B2042A00D1C0B24FF007
:103B2000000922072AD53278702A07D0DDF800C0B4
:103B30008CF0100C5CEA0B0C05D00EE040228DF8E6
:103B40000420012208E050EA010306D030238DF85A
:103B500004308DF8052002229146009B83F0080373
:103B600053EA0B030AD150EA010201D1620705D5DD
:103B700030228DF804204FF001097F1E3278582A38
:103B800004D039A20C920CAA02920BE03BA2F9E7F6
:103B90005B46009AFCF728FF0C9B9B5C029A521E26
:103BA0000292137050EA0102F2D1029804A9081A95
:103BB00000F1200B600702D524F4803400E00127D7
:103BC0005F4502DDA7EB0B0000E0002000EB0B01DE
:103BD000009003984944401A0390E00306D45346EA
:103BE0002146179A039800F0A9F90544002706E03A
:103BF00001A85246C05D179990476D1C7F1C4F4528
:103C0000F6DBE0030CD553462146179A039800F0E3
:103C100095F9054404E030205246179990476D1CF1
:103C20000099481E00900029F5DC08E002980299EE
:103C300052460078491C0291179990476D1CBBF1C0
:103C40000001ABF1010BF1DC5BE100F065F905442B
:103C5000761C307800287FF40DAE19B02846BDE8F8
:103C6000F08F000009280100303132333435363707
:103C700038396162636465660000000030313233B8
:103C80003435363738394142434445460000000058
:103C9000600700D4062708F1070020F00700F0E8CD
:103CA0000223804603F0004C5FEA0C0001D097A08D
:103CB00009E0200501D596A005E0E00701D095A018
:103CC00001E0AFF24C001390307823F000436528F8
:103CD0000CD006DC452809D046281DD047287FD1C6
:103CE0003BE0662818D067287AD136E00021112FF2
:103CF00001DB112000E0781CCDE9000104A90CA82B
:103D0000FFF7EEFCDDE90D010C9A4FF0000B07F117
:103D10000109109200914EE04FF000400097CDE96C
:103D2000011004A90CA8FFF7DBFCDDE90D020C9BD8
:103D30000F994FF0000B91461093009211B9791C26
:103D400000EB0109B7EB090003D4C0F1FF3B07F119
:103D50000109A9EB0700019042E0012F00DA0127D9
:103D60000021112F01DD112000E03846CDE90001CE
:103D700004A90CA8FFF7B4FCDDE90D010C9A009131
:103D80004FF0000BB946109221070FD4009A4A4514
:103D900003DA914601E0A9F10109B9F1010F05DD4E
:103DA000109AA9F10101515C3029F4D0B84202DA2D
:103DB00010F1040F03DA0121CDE9011010E0002811
:103DC00003DC8344A9EB000102E0411C494500DD0E
:103DD0008946A0EB0B00401C01904FF00040029080
:103DE000200705D40198484502DB4FF0FF300190D1
:103DF00000208DF84B0002980DF14B07B0F1004FF9
:103E000025D002200C902B200D90029800280CDA6F
:103E1000404202902D200D9007E00A210298FCF705
:103E2000CDFD3031029007F8011D0C99481E0C9011
:103E30000029F2DC02980028EFD1791E0D98087055
:103E4000307800F0200040F0450007F8020D11A87E
:103E5000C01BC01D02901398007800B1012000EB38
:103E60000901019801EBE071029801440398401A9E
:103E7000401E0390E00306D453462146179A039848
:103E800000F05CF805441398007818B15246179971
:103E900090476D1CE00323D553462146179A03989B
:103EA00000F04CF805441BE0BBF1000F07DB009865
:103EB000584504DD1098179910F80B0001E0179988
:103EC00030205246904701980BF1010B401E05F13E
:103ED0000105019004D12E205246179990476D1C80
:103EE000B9F10001A9F10109DEDC05E017F8010BC9
:103EF0005246179990476D1C0299481E029000295E
:103F0000F4DC53462146179A03989EE62D000000E4
:103F10002B000000200000002DE9F04104460025A0
:103F20001E461746880404D405E039462020B047D1
:103F30006D1C641EF9D52846BDE8F0812DE9F041DD
:103F4000044600251E469046C80301D5302700E0F0
:103F50002027880404D505E041463846B0476D1C4B
:103F6000641EF9D52846BDE8F0814A68002A06D0CB
:103F70000A68531C0B6010704868401E4860704708
:103F80000A68531C0B601070704700002DE9F04D5B
:103F90008D4F21F0004A86B005460C46BA452ADB13
:103FA000AAEB070028430AD08848824501DC1AD1D1
:103FB000CDB106B02846BDE8F04DFFF7ABBA844A54
:103FC000844B2846FCF765FB07460E46824A834B26
:103FD00028462146FCF75DFB06B03A463346BDE86D
:103FE000F04DFCF7AFBA0120FFF7BEFA06B0BDE80E
:103FF000F04DFFF794BA7A48824542DABAF1795F18
:104000000BDA2846FFF714FA042808BFFFF794FAE2
:10401000284606B02146BDE8F08D2A460B461046DC
:10402000FCF737FB834602466E480E460B460621D8
:104030007844FFF711FA5A463346FCF72AFB8046CC
:1040400069488A465A46334604217844FFF704FA01
:104050005A463346FCF71DFB00223B46FCF772FA3A
:1040600002460B4640465146FCF785FB2A4623464E
:10407000FCF70FFB06B02A462346BDE8F04DFCF7DF
:1040800061BA284624F0004100223D463B46FCF739
:10409000FDFA4FF0FF32FCF7DDFB064602465348BF
:1040A0000F460B4606217844FFF7D6F932463B46C9
:1040B000FCF7EFFACDE900014D4832463B460421BA
:1040C0007844FFF7C9F932463B46FCF7E2FA002292
:1040D0002B46FCF737FA834602913046394602F008
:1040E0005BFE804643480D46504517DCDDE9000184
:1040F0005A46029BFCF73FFB42462B46FCF7C9FAA7
:1041000042462B46FCF71EFA0122FCF7A3FB304A7D
:10411000304BFCF7B8FA304A304B4CE04FF0000A15
:1041200052460B464046FCF70DFACDE903105246C5
:104130002B4610461946FCF7ACFA32463B46FCF7D4
:10414000A5FADDE90332FCF716FB06460F46DDE96A
:1041500000015A46029BFCF70EFB834600910122A8
:1041600030463946FCF776FB194A1A4BFCF78EFAB3
:1041700006460F46012240462946FCF76BFB5A468D
:10418000009BFCF786FA32463B46FCF77CFA064673
:104190000F46012250462946FCF75CFB0E4DDFF826
:1041A00058802A464346FCF771FA32463B46FCF7F4
:1041B0006DFA2A464346FCF769FA002CD8BF81F015
:1041C000004106B0BDE8F08D0000F03F0000F07F38
:1041D000075C143326A6913C182D4454FB21F93F6B
:1041E0000000E03F8C480000A24800001648000094
:1041F0002C4800003333EF3FFB21E93F074A0146DB
:10420000002013881B0407D51288054BC2F30E0249
:1042100098541846FBF7CEBF70470000B20000204C
:10422000880C00202DE9F041114D002614468846E7
:1042300037462E8001460FA002F0D4FDB8F1000FE2
:1042400013D06CB911E00A2000F042F8288800046D
:1042500006D54046FFF7D2FF08B12CB105E02F800C
:10426000641E2404240CEED101263046BDE8F08102
:10427000B200002025730D0A000000002DE9F04176
:10428000114D00261446884637462E8001460FA061
:1042900002F0A8FDB8F1000F13D06CB911E00A20AC
:1042A00000F016F82888000406D54046FFF7A6FF60
:1042B00008B12CB105E02F80641E2404240CEED13B
:1042C00001263046BDE8F081B200002025730000D1
:1042D00010B5044602F002F804EB000401F0FEFF02
:1042E000001B0028FADD10BD002805D04FF0E021AA
:1042F0004FF40000C1F80001704710B51720FCF71B
:1043000041FF002805D04FF0E0224FF40001C2F831
:10431000801110BD2DE9FC5F054600200090044689
:104320006E46019004F128003119C0B200F08AF8FD
:10433000641CE4B2062CF5D3BDF900000011FCF7B3
:10434000A0FA0746BDF902000011FCF79AFA0646EA
:10435000BDF904000011FCF794FAA860C5E90076E5
:1043600004463846FCF7ACFA002800DA4042FCF775
:1043700088FA83463046FCF7A3FA002800DA404268
:10438000FCF77FFA06462046FCF79AFA002800DA86
:104390004042FCF776FA8246FCF7BFFA4FF08049BC
:1043A00000224B4601F0A0FF044688463046FCF749
:1043B000B4FA00224B4601F097FF06460F465846D6
:1043C000FCF7ABFA00224B4601F08EFF3B4632462B
:1043D000FCF7B8F822464346FCF7B4F802F0DCFCE0
:1043E000FCF7C6FA044601465046FCF7DDFA00D257
:1043F000A24621465046FCF767F8FCF78EFAFFF715
:10440000C5FD0122FCF726FA0A4A0B4BFCF7B3F96B
:1044100000220A4BFCF73DF9FCF7AAFA01460848CE
:10442000FCF71AF810F1FF4F00D30020E8600020DD
:10443000BDE8FC9F1F85EB51B81E09400080564027
:104440000000B4422DE9F047414F322688468246AB
:1044500064244FF4003529463846FCF7F7FF08B1CD
:10446000641EF8D201213846FCF7DCFF394D642484
:1044700029463846FCF7EAFF08B9641EF8D2002244
:1044800031463846FDF764F8DFF8CC90642449469D
:104490003846FCF79BFF08B9641EF8D251463846EF
:1044A000FDF75EF8DFF8B090642409F1020949468F
:1044B0003846FCF78BFF08B9641EF8D20121384654
:1044C000FCF7B0FF642429463846FCF7BFFF08B963
:1044D000641EF8D2012231463846FDF739F81F4DE7
:1044E000642429463846FCF771FF08B9641EF8D2E7
:1044F0001A4D64243E3529463846FCF767FF08B953
:10450000641EF8D23846FDF720F805464FF2FF71D9
:104510003846FDF70FF800213846FCF74DFF012122
:104520003846FCF789FF0B4E64240F363146384677
:10453000FCF78CFF08B1641EF8D200213846FCF766
:104540003BFF62B6002088F80050BDE8F08700000D
:104550000054004001000010820007000200030028
:1045600010B50B46024632210248FCF7FBFF002043
:1045700010BD00000054004010B537212020FFF787
:10458000EFFF03212120FFF7EBFFC0212220FFF7DF
:10459000E7FF88212320FFF7E3FF7F213020FFF78B
:1045A000DFFF02213220FFF7DBFF03213320FFF77B
:1045B000D7FF5F21BDE810402020FFF7D1BF0000EA
:1045C0002DE9F84F04460578407978494FF0000905
:1045D000C84631F8107061787548491ECEB2016343
:1045E000042D75D0072D73D000218A4621780173E0
:1045F0006F49E2798969002A6CD021F480018161D8
:10460000217A4173217A4FF44033826903EA0141F0
:104610000A43834682610021042000F02AFB3A46C7
:1046200042F604012E2000F017FB3046FEF7A2FFF1
:10463000604F61490522785D00EB80004318072137
:104640002B2000F025FB5D49012201EB0A030B2121
:10465000282000F01DFB785D594951F820200C21DD
:10466000282000F006FBE079564901EB8000A17993
:1046700030F811200221272000F0EEFA52480421E0
:1046800030F81620272000F0E7FAE07938B3A07858
:1046900004282AD028208DF8000020220621272077
:1046A00000F0DAFA6B4601222621272000F0F0FA0A
:1046B0004648E17800EB061050F821200821272019
:1046C00000F0D7FAB4F80900A0B117E000E001E06B
:1046D00001218AE741F48001FF08816190E76422AB
:1046E0000621272000F0B8FAE2E710208DF800003C
:1046F0000246D3E741F24100A4F80900B4F80920CA
:104700002021272000F0A8FA314F0C2123203A68FD
:1047100000F0AFFA07EB460004218288232000F066
:104720009BFAA07958B1E0792A4901224318002167
:10473000212000F0ADFA4FF003094FF0010805F019
:104740000F00290740EA116061784FF4402202EA25
:1047500081410843920002EA095108434FF40032B4
:1047600002EA4841084321794FF0F86202EA815198
:104770000843617940EAC16200211F2000F079FA04
:10478000A07861784FF4004308430204CBF810206E
:10479000E179082043EA41310A430021CBF8102097
:1047A00000F067FA0020BDE8F88F00007888000864
:1047B0006C150020F98700081C8800083A8800085A
:1047C00004880008488800085488000858880008B1
:1047D0003C8800084488000810B5044604213620AF
:1047E00000F0BBF814B140F4006201E020F4006274
:1047F0000421BDE81040362000F03BBA38B5402017
:104800008DF8000000210E2000F0A7F80446FFF705
:1048100074FD0546002211460E2000F02AFA6B4670
:10482000012200210D2000F033FA0A4A00210F2056
:1048300000F01FFA00F0F6F9224600210E2000F0E9
:1048400018FA2846FFF750FD0349002081F82C0094
:1048500038BD0000F8FF27246C1500207CB5054604
:10486000324C04208DF8000000216175216384F82A
:10487000251084F82C10A1836163A16300F080F8F7
:104880002B492060884201D088177CBD0020FEF7AC
:1048900089FE6B4601220021242000F0F9F91E2038
:1048A000FEF7FBFE86B2300AA0730420FEF7F5FE89
:1048B00010F0FF0F0CD002208DF8040001AB012294
:1048C00012212D2000F0E4F9A08B40F48050A08349
:1048D0000620FEF7E2FE60600720FEF7DEFEA06025
:1048E00016F01F00207501D110202075C0B200F015
:1048F0000DFAE80706D0FEF7B6FEA08B40F4006084
:10490000A08309E00521362000F014F820F400729D
:104910000521362000F0A0F90120FEF743FE00211A
:10492000042000F01AF8A06100207CBD6C15002066
:104930003001CADE38B54FF6FF7489B280B26B46DB
:10494000022200F021F830B99DF800009DF8011016
:1049500000EB012084B2204638BD38B54FF0FF345B
:1049600089B280B26B46042200F00EF830B9032100
:104970006846425C491E02EB0424FAD5204638BD45
:1049800000210846FFF7E9BF08B551B140F04000EB
:104990008DF80000C8B27F2907D88DF801000220E9
:1049A0000BE08DF80000012007E040F080008DF85A
:1049B0000100C8098DF802000320694602F082F95F
:1049C00008BD30B414460A462146034630BC1120C7
:1049D000FFF7DABF0346052200211520FFF7D4BFF9
:1049E0000346052200211720FFF7CEBF38B5054644
:1049F00000208DF8000000F015F94FF48074224675
:104A00000DB14FF4407200210D2000F025F99DB149
:104A10006B46012203210F20FFF7B6FF9DF800002F
:104A2000000709D5FFF7EAFE224600210D2000F01D
:104A300013F94FF0FF3038BD002038BD0246012188
:104A40000A2000F016B938B50446C0076B464FF08F
:104A500002024FF000014FF026002DD0FFF794FF27
:104A60009DF80100012220F03C0040F014008DF878
:104A70000100114626200DF1010300F009F96B46F3
:104A8000012202213620FFF77FFF9DF800006B46D0
:104A900040F084008DF8000001220221362000F051
:104AA000F7F810208DF8000001208DF80100022297
:104AB00028216B4636200BE0FFF766FF9DF80100CA
:104AC0006B4620F014008DF8010002220021262000
:104AD00000F0DEF8A00711D50F208DF800006B461E
:104AE00001222A21362000F0D3F800208DF80000A2
:104AF0006B4601222A21362000F0CAF838BD10B5D5
:104B0000044600211A20FFF728FFC4F313026FF3B5
:104B1000130002430021BDE810401A2000F0A9B89C
:104B2000024641F604012E2000F096B838B505463D
:104B30006B46012203210420FFF726FF104C75B1BC
:104B40002A4600210C2000F087F89DF8000040F074
:104B500010008DF80000A06940F0805008E09DF83A
:104B6000000020F010008DF80000A06920F08050B7
:104B7000A0616B4601220321042000F089F838BDB2
:104B80006C15002002460021182000F065B80000D6
:104B9000F8B500240546224F26468DF800408007D0
:104BA0000BD580208DF800006B46012200210D20DE
:104BB00000F06EF8012087F82C00E8079DF800004F
:104BC00021D040F006008DF800006B460122002144
:104BD0000D2000F05DF803210F20FFF7ABFE10F46D
:104BE000816F1AD040208DF800006B460122002111
:104BF0000D2000F04DF80020FFF7EEFD87F82C6047
:104C00004FF0FF3409E040F002008DF800006B46E1
:104C1000012200210D2000F03BF82046F8BD0000E5
:104C20006C1500201CB56B46012203210F20FFF7F5
:104C3000ABFE9DF8000000F0800100F04000B1EBF9
:104C4000400F08D001208DF80400024601AB03217B
:104C50000D2000F01DF81CBD08B589B28DF80020AC
:104C6000120A8DF8012080B26B46022200F010F883
:104C700008BD38B500236C46E254120A5B1C042BB5
:104C8000FADB89B280B22346042200F001F838BD75
:104C900008B551B140F0C0008DF80000C8B27F29BE
:104CA00009D88DF8010002200DE040F080008DF859
:104CB0000000012007E040F080008DF80100C809E5
:104CC0008DF802000320694602F0BCF908BD10B55A
:104CD00014460244B2F5806F02D94FF0FF3010BD88
:104CE0000B46821E21460920FFF7D2FF002010BD8F
:104CF000054A10B5126940EA81500243002108209C
:104D0000FFF7B7FF002010BD6C15002038B5044632
:104D10006B4601220E212B20FFF736FE9DF8000086
:104D200004F01F0120F01F0001438DF800106B46B6
:104D300001220E212B20FFF7ABFF38BD7CB5174DAC
:104D400000246879000627D5154E307A400623D511
:104D50001448E9884B234068CDE90001124A13A1A9
:104D60000020FEF715FBE888A0F580614C3909D0DA
:104D7000B0F5617F08D0B0F5167F07D0B0F5C87FD9
:104D800006D006E0462404E0532402E0542400E068
:104D9000482400206871307220467CBD3811002004
:104DA000580A0020B8000020237100083C25733EFB
:104DB0005B25645D3C3C25643E3E74696D5F636FBA
:104DC000756E743A25640D0A00000000F0B5104EAF
:104DD000104B114D347819686706C1F307204FF066
:104DE000000212D56FEA114C0F0E0CF0FF0CBC45FF
:104DF00007D137B9C943C9B2814202D108B12106EE
:104E000003D424F0400131702A701A602A70F0BD7A
:104E100008000020140000200900002038B50121FE
:104E20000820FCF755FE01210846FCF751FE012140
:104E30000D48FCF789FA4FF40E70ADF800000B4DE9
:104E400048248DF8034069462846FCF72BFAA8153C
:104E5000ADF800008DF8034003208DF8020069468C
:104E60002846FCF71FFA38BD00023000000C014054
:104E70002DE9F04100273F4D3F4C01264FF40078CB
:104E800008B1267002E02078002851D00821284679
:104E9000FCF786FA70B110212846FCF781FA48B178
:104EA00020212846FCF77CFA20B141462846FCF731
:104EB00077FA08B96078B0B1207878B3082128462D
:104EC000FCF76EFA90B110212846FCF769FA68B138
:104ED00020212846FCF764FA40B141462846FCF7F9
:104EE0005FFA18B124E0A770667040E06078A8B15E
:104EF000277008212846FCF753FA80B11021284674
:104F0000FCF74EFA68B120212846FCF749FA50B167
:104F100041462846FCF744FA38B128E008E0A6707C
:104F200025E0022002E0032000E00420A0701EE043
:104F300008212846FCF734FA012818D11021284608
:104F4000FCF72EFA012812D120212846FCF728FA76
:104F500001280CD141462846FCF722FA012806D147
:104F6000607820B126706770A078BDE8F0810020DD
:104F7000FBE70000000C0140B800002010B5002144
:104F80004254120A42EA03621B0A491C0429F7DB55
:104F900010BD000070B5094C054640212046FDF7C4
:104FA00095FFE9B22046FEF771F840212046FDF753
:104FB000D5FF0028F9D0284670BD00000038014018
:104FC0002DE9FF5F1D4614468B464FF0000A64260C
:104FD0004FF4003739460098FCF738FA08B1761ECE
:104FE000F8D201210098FCF71DFA464F6426394695
:104FF0000098FCF72BFA08B9761EF8D26426002236
:1050000059460098FCF7A4FADFF8F880DFF8F8902A
:1050100008F10F0849460098FCF7D8F9B8B1002EFE
:1050200018DC01210098FCF707FA6424454629465C
:105030000098FCF70BFA08B1641EF8D20021009822
:10504000FCF7BAF94FF0FF3004B0BDE8F09F761ED0
:10505000E0D2E6E7642601210098FCF7E3F939463F
:105060000098FCF7F3F908B9761EF8D264260122FD
:1050700059460098FCF76CFA244F00983946FCF723
:10508000A5F908B9761EF8D2DFF88090002609F15C
:105090003E094FF4006B6D1E15E0642749460098E9
:1050A000FCF794F908B97F1EF8D20098FCF74DFA86
:1050B00004F8010B59460098FCF73CFA01210098CE
:1050C000FCF77AF9761CAE42E7D30098FCF73DFA7C
:1050D00020704FF2FF710098FCF72CFA0021009825
:1050E000FCF76AF901210098FCF7A6F941460098FF
:1050F000FCF7ACF900210098FCF75EF962B6504667
:10510000A2E7000001000010820007000200030077
:105110002DE9F0471F46164688468146002542F293
:105120000F740AE032784146484600F00BF82046FA
:10513000761C401E80B2FCD26D1CBD42F2D3BDE88D
:10514000F08700002DE9F0410F4616468046012108
:10515000FCF768F9234D642429464046FCF736F9EC
:1051600010B9641EA4B2F7D2002239464046FCF7BB
:10517000EFF914B91C49002008601C4D642429462D
:105180004046FCF723F910B9641EA4B2F7D23146A9
:105190004046FCF7E5F9154D6424AD1C2946404610
:1051A000FCF714F910B9641EA4B2F7D201214046ED
:1051B000FCF742F90E4D642429464046FCF746F9B7
:1051C00010B1641EA4B2F7D200214046FCF7F4F8F7
:1051D00062B642F22730401E80B2FCD20020BDE809
:1051E000F0810000010003009C0100208200070004
:1051F00010000010A2B00026354634461C96462109
:10520000FE481D96DFF8F8A30170532180F82C109A
:10521000542180F85810482180F88410FF218170B3
:1052200080F82E1080F85A1080F88610DFF8D4B37A
:105230004D218AF800108BF802408BF809404FF49A
:105240004070FCF765FA01F024F800F0FDFBFCF774
:1052500085FAFDF7EFF9FDF73DF9FFF7DFFD4FF4B4
:10526000E13001F0E5FDE8A0FEF792F801F056FE0E
:10527000FCF796FCDFF8A48301F0CEFE98F800005E
:1052800001287DD1E648008800047AD50094019475
:10529000E4A1E6480294FAF78DFF016800914168A5
:1052A00001910089ADF80800FF2020909DF80500CD
:1052B00010B13038C0B22090DC4B9922DC49DDA01F
:1052C000FEF766F8E0A1D948FAF774FF07460078C0
:1052D000232809D0D24804800088C0F30E01D348A7
:1052E000445488F80040C7E70422D8A13846FAF7AA
:1052F00090FF002871D02C2002461690BF483946F6
:10530000B030FAF733FF2C210BA8FAF748FF12A9A7
:1053100011AA1F94CDE9072115A81FABCDE90930CB
:105320000FA80EA9CDE904100CA810AA0692411EE0
:10533000821E0DABCDE90203CDE90021AF4814ABCD
:105340000BAAC4A1B030FAF773FF0DF12C0948463F
:1053500001F0B6FCCA4F3878FF2815D0A74A7C80E8
:10536000B032C8A102F58060FEF73CF879880844A5
:1053700080B2C5497880C2B20C543978C24801E085
:1053800024E021E0FDF74EFD20988DF82E00002747
:1053900007EB4700994A00EBC70199F8000012F8A3
:1053A0002130834205D102EB81004946169AFAF773
:1053B000DDFE7F1CFFB2042FEAD399480188C1F3B8
:1053C0000E029A498C54048088F8004098F8010035
:1053D0004746012805D005E0FFE7A9492098087055
:1053E00078E77C70B878012800D1BC70F878012883
:1053F0000FD1FC70FFF73CFD59468BF804000028E4
:1054000007D0032806D004284DD001287DD00228DB
:105410007CD0E0E08878022802D0052837D0DAE096
:105420000878022829D19AF80320CB7850461A43ED
:1054300042F002028AF80320130704D522F0080282
:1054400042F0040209E0530702D522F0040204E00E
:1054500012F00C0F02D142F00802C270D2B28BF8E7
:10546000032022F070018AF8031000914FF49B731F
:105470006F4A86A10020FCF711FCDAF82400401ED8
:10548000CAF82400002801DCCAF82440A3E0087808
:10549000401CC0B2087004284ED90C704CE000BF0C
:1054A00020F01F0095E08878022802D005283BD024
:1054B00091E0087802282CD19AF80300CB78524664
:1054C000184340F040008AF8030010F0300F06D077
:1054D000830607D520F0200040F0100006E040F0E1
:1054E000200003E0C30602D520F01000D070C0B247
:1054F0008BF8030020F00F008AF80300009040F2C0
:1055000053134B4A61A1002001E019E025E0FCF7AC
:10551000C5FBDAF82410491CCAF824100A295ADD00
:105520000A21CAF8241056E00878401EC0B208705C
:10553000042801D303200870087A8206B0D44AE018
:105540008878012847D98AF803400220CAF8244005
:1055500048700120887040203BE08878012808D0FE
:10556000072806D002280AD003280AD005280CD024
:1055700031E0487818BB05208870202029E00320FE
:1055800000E002208BF8020025E0087800EB4002E2
:1055900002EBC003194A02EB83029278FF2A13D070
:1055A0004A7862B902280BD081228AF803200A22A5
:1055B000CAF824200220887001208BF801000AE03C
:1055C00080228AF80320F5E706208870087A40F0E8
:1055D00080008BF808003879012802D1CAF81C40F5
:1055E0003C71787901287DD117A8FEF793FE1798B2
:1055F000FBF77FF981B2CAF8081055E0A801002036
:10560000800A00203811002068656C6C6F20647778
:105610006D31303030210D0A00000000580A0020A2
:10562000B20000202B4950442C000000880C0020C0
:10563000A87000083C25733E5B25645D6275666654
:105640003A25730D0A0000002300000023617070EA
:10565000000000002325642325642325642325649A
:1056600023256423256423256423256423256423BB
:1056700025642325642325642325643E000000005F
:105680000400002025730000580600203C25733ECE
:105690005B25645D75646174612E636D643A307876
:1056A000253032780D0A00001898FBF722F981B2F4
:1056B000CAF80C101998FBF71CF981B2CAF810103F
:1056C0007C711CA8FCF756FC401C07D0C8491C98EC
:1056D000FAF7C8FEFBF7F4F8CAF814001DA8FCF7A7
:1056E000EDFB00E00DE0401C07D0C1491D98FAF722
:1056F000B9FEFBF7E5F8CAF81800DAF82410CAF882
:105700002010B879B84601287ED188F806409BF869
:10571000020040B901218BF802109BF8081041F0FB
:1057200040018BF80810280000F10105EDB26BD0A4
:10573000FFF74CFB0546034640F2C912AD49AEA047
:10574000FDF726FEFFF7FAFA732D0DD0502D0DD080
:105750007B2D0DD0B0480079A8424BD15FF04807AF
:105760009BF8010030B145E04627F9E75327F7E7FA
:105770005427F5E73B4640F2DB129E49A7A0FDF710
:1057800007FE2C20DFF8B0920025169005EB4500AF
:1057900000EBC50119F82120BA4227D109EB81019C
:1057A000A648169AFAF7E2FC4D218AF80010DAF8BA
:1057B00004105046B1F57A7F18DA8178FF2915D0A8
:1057C00002218BF802109BF8081021F040018BF8A1
:1057D000081001218BF801108BF800500A2141625A
:1057E0008121C170022D01D18AF803106D1CEDB228
:1057F000042DCBD300F028F9FBF7B0FF9BF8011084
:105800005B46E9B34D2200E07BE050468AF8002079
:10581000022902D001290BD00EE05C70C470012176
:1058200044629970197A41F040018BF8081003E046
:10583000C17841F08001C1708149D1460DF10C0C55
:105840004C80D9E90930D9E90615CDE90930CDE90F
:1058500007150AF10800A3C88CE8A3009AF8020013
:105860009AF80310DAF804508DE82300AFF21C21F7
:105870007448FDF7B7FD72494988084480B200E0DA
:1058800009E06F49C2B248806E490C5499F8021081
:105890006C48FDF7C7FA6A490878FF2830D04D22D6
:1058A00050468AF800204C808946D0E90931D0E979
:1058B0000657CDE90931CDE907570AF1080C9CE8F4
:1058C000A210CDE90315CDE9057C9AF802009AF8FB
:1058D0000310DAF804508DE82300AFF2882159480C
:1058E000FDF780FDB9F80210084480B25549A9F8C7
:1058F0000200C2B20C5499F800105248FDF792FA17
:10590000002598F80700424601287FF4ECAC3046A9
:10591000761CF6B2022869D39BF802005946062885
:1059200004D007280BD0012809D020E0087A03060C
:105930002CD505238B7020F08000087219E00B7ABB
:105940005E0614D55B1C0B7203F01F03052B0AD9EE
:10595000072802D0012803D005E00C72012001E0E5
:105960000C7207208870087A40F040000DE005288E
:105970000CD1087A830609D5401C087200F01F007C
:10598000052803D90120887040200872487A2A4BE4
:1059900020F0F0004872002000EB400606EBC00645
:1059A00003EB8606B678FF2E02D04E7A10364E7282
:1059B000401CC0B20428EFD3487A401C487200F063
:1059C0000F000A2811D91E48FF2606708BF80940DF
:1059D0005FF0000000EB400101EBC00103EB81012F
:1059E000401CC0B28E700528F4D30026D47143E465
:1059F0000000C842A87000083C25733E5B25645D2A
:105A0000696E6672617265645F766C3A30782530D3
:105A100032780D0A0D0A0000AD7000083C25733E77
:105A20005B25645D696E6672617265645F6D616B52
:105A30003A25630D0A000000A8010020800A00201A
:105A400004000020580600202DE9F84F1821FE48D8
:105A5000FAF7A5FB002108238022084600F086FB08
:105A600072B6F94FF94C0A3F4FF0000BB878A4F129
:105A7000040A98B1DFF8D083F54D10264FF0640981
:105A800001280FD0F349022874D0042873D00528C8
:105A900072D0062871D0072870D040E30221202060
:105AA0002268EAE2787A00096AD000211020E268D0
:105AB000FBF70EFF10233A2200214020FBF764FF82
:105AC0000096787A0223020900214820FBF79AFF0A
:105AD0009AF800200221002008F802B0E269FBF7E2
